{
  "_format": "hh-sol-artifact-1",
  "contractName": "ShipmentContract",
  "sourceName": "contracts/ShipmentContract.sol",
  "abi": [
    {
      "anonymous": false,
      "inputs": [
        {
          "indexed": false,
          "internalType": "uint256",
          "name": "shipment_id",
          "type": "uint256"
        },
        {
          "indexed": false,
          "internalType": "string",
          "name": "sender_email",
          "type": "string"
        },
        {
          "indexed": false,
          "internalType": "string",
          "name": "buyer_email",
          "type": "string"
        },
        {
          "indexed": false,
          "internalType": "string",
          "name": "current_authority",
          "type": "string"
        },
        {
          "indexed": false,
          "internalType": "string",
          "name": "next_authority",
          "type": "string"
        },
        {
          "indexed": false,
          "internalType": "uint256",
          "name": "duration",
          "type": "uint256"
        },
        {
          "indexed": false,
          "internalType": "string",
          "name": "status",
          "type": "string"
        },
        {
          "indexed": false,
          "internalType": "string",
          "name": "action",
          "type": "string"
        },
        {
          "indexed": false,
          "internalType": "uint256",
          "name": "product_id",
          "type": "uint256"
        }
      ],
      "name": "ShipmentCreated",
      "type": "event"
    },
    {
      "anonymous": false,
      "inputs": [
        {
          "indexed": false,
          "internalType": "uint256",
          "name": "shipment_id",
          "type": "uint256"
        },
        {
          "indexed": false,
          "internalType": "string[]",
          "name": "route",
          "type": "string[]"
        }
      ],
      "name": "ShipmentRouteCreated",
      "type": "event"
    },
    {
      "inputs": [
        {
          "internalType": "uint256",
          "name": "shipment_id",
          "type": "uint256"
        },
        {
          "internalType": "string",
          "name": "sender_email",
          "type": "string"
        },
        {
          "internalType": "string",
          "name": "buyer_email",
          "type": "string"
        },
        {
          "internalType": "string",
          "name": "current_authority",
          "type": "string"
        },
        {
          "internalType": "string",
          "name": "next_authority",
          "type": "string"
        },
        {
          "internalType": "uint256",
          "name": "duration",
          "type": "uint256"
        },
        {
          "internalType": "string",
          "name": "status",
          "type": "string"
        },
        {
          "internalType": "string",
          "name": "action",
          "type": "string"
        },
        {
          "internalType": "uint256",
          "name": "product_id",
          "type": "uint256"
        }
      ],
      "name": "createShipment",
      "outputs": [],
      "stateMutability": "nonpayable",
      "type": "function"
    },
    {
      "inputs": [
        {
          "internalType": "uint256",
          "name": "shipment_id",
          "type": "uint256"
        },
        {
          "internalType": "string[]",
          "name": "route",
          "type": "string[]"
        }
      ],
      "name": "createShipmentRoute",
      "outputs": [],
      "stateMutability": "nonpayable",
      "type": "function"
    },
    {
      "inputs": [
        {
          "internalType": "string",
          "name": "buyer_email",
          "type": "string"
        }
      ],
      "name": "getShipmentsByBuyerAndAuthority",
      "outputs": [
        {
          "components": [
            {
              "internalType": "uint256",
              "name": "shipment_id",
              "type": "uint256"
            },
            {
              "internalType": "string",
              "name": "sender_email",
              "type": "string"
            },
            {
              "internalType": "string",
              "name": "buyer_email",
              "type": "string"
            },
            {
              "internalType": "string",
              "name": "current_authority",
              "type": "string"
            },
            {
              "internalType": "string",
              "name": "next_authority",
              "type": "string"
            },
            {
              "internalType": "uint256",
              "name": "duration",
              "type": "uint256"
            },
            {
              "internalType": "string",
              "name": "status",
              "type": "string"
            },
            {
              "internalType": "string",
              "name": "action",
              "type": "string"
            },
            {
              "internalType": "uint256",
              "name": "product_id",
              "type": "uint256"
            }
          ],
          "internalType": "struct ShipmentContract.Shipment[]",
          "name": "",
          "type": "tuple[]"
        }
      ],
      "stateMutability": "view",
      "type": "function"
    },
    {
      "inputs": [
        {
          "internalType": "string",
          "name": "current_authority",
          "type": "string"
        }
      ],
      "name": "getShipmentsByManagerAndAuthority",
      "outputs": [
        {
          "components": [
            {
              "internalType": "uint256",
              "name": "shipment_id",
              "type": "uint256"
            },
            {
              "internalType": "string",
              "name": "sender_email",
              "type": "string"
            },
            {
              "internalType": "string",
              "name": "buyer_email",
              "type": "string"
            },
            {
              "internalType": "string",
              "name": "current_authority",
              "type": "string"
            },
            {
              "internalType": "string",
              "name": "next_authority",
              "type": "string"
            },
            {
              "internalType": "uint256",
              "name": "duration",
              "type": "uint256"
            },
            {
              "internalType": "string",
              "name": "status",
              "type": "string"
            },
            {
              "internalType": "string",
              "name": "action",
              "type": "string"
            },
            {
              "internalType": "uint256",
              "name": "product_id",
              "type": "uint256"
            }
          ],
          "internalType": "struct ShipmentContract.Shipment[]",
          "name": "",
          "type": "tuple[]"
        }
      ],
      "stateMutability": "view",
      "type": "function"
    },
    {
      "inputs": [
        {
          "internalType": "string",
          "name": "sender_email",
          "type": "string"
        },
        {
          "internalType": "string",
          "name": "current_authority",
          "type": "string"
        }
      ],
      "name": "getShipmentsBySenderAndAuthority",
      "outputs": [
        {
          "components": [
            {
              "internalType": "uint256",
              "name": "shipment_id",
              "type": "uint256"
            },
            {
              "internalType": "string",
              "name": "sender_email",
              "type": "string"
            },
            {
              "internalType": "string",
              "name": "buyer_email",
              "type": "string"
            },
            {
              "internalType": "string",
              "name": "current_authority",
              "type": "string"
            },
            {
              "internalType": "string",
              "name": "next_authority",
              "type": "string"
            },
            {
              "internalType": "uint256",
              "name": "duration",
              "type": "uint256"
            },
            {
              "internalType": "string",
              "name": "status",
              "type": "string"
            },
            {
              "internalType": "string",
              "name": "action",
              "type": "string"
            },
            {
              "internalType": "uint256",
              "name": "product_id",
              "type": "uint256"
            }
          ],
          "internalType": "struct ShipmentContract.Shipment[]",
          "name": "",
          "type": "tuple[]"
        }
      ],
      "stateMutability": "view",
      "type": "function"
    },
    {
      "inputs": [
        {
          "internalType": "uint256",
          "name": "shipment_id",
          "type": "uint256"
        }
      ],
      "name": "handleShipmentAction",
      "outputs": [],
      "stateMutability": "nonpayable",
      "type": "function"
    },
    {
      "inputs": [
        {
          "internalType": "uint256",
          "name": "",
          "type": "uint256"
        }
      ],
      "name": "shipmentIds",
      "outputs": [
        {
          "internalType": "uint256",
          "name": "",
          "type": "uint256"
        }
      ],
      "stateMutability": "view",
      "type": "function"
    },
    {
      "inputs": [
        {
          "internalType": "uint256",
          "name": "",
          "type": "uint256"
        }
      ],
      "name": "shipmentRoutes",
      "outputs": [
        {
          "internalType": "uint256",
          "name": "shipment_id",
          "type": "uint256"
        }
      ],
      "stateMutability": "view",
      "type": "function"
    },
    {
      "inputs": [
        {
          "internalType": "uint256",
          "name": "",
          "type": "uint256"
        }
      ],
      "name": "shipments",
      "outputs": [
        {
          "internalType": "uint256",
          "name": "shipment_id",
          "type": "uint256"
        },
        {
          "internalType": "string",
          "name": "sender_email",
          "type": "string"
        },
        {
          "internalType": "string",
          "name": "buyer_email",
          "type": "string"
        },
        {
          "internalType": "string",
          "name": "current_authority",
          "type": "string"
        },
        {
          "internalType": "string",
          "name": "next_authority",
          "type": "string"
        },
        {
          "internalType": "uint256",
          "name": "duration",
          "type": "uint256"
        },
        {
          "internalType": "string",
          "name": "status",
          "type": "string"
        },
        {
          "internalType": "string",
          "name": "action",
          "type": "string"
        },
        {
          "internalType": "uint256",
          "name": "product_id",
          "type": "uint256"
        }
      ],
      "stateMutability": "view",
      "type": "function"
    }
  ],
  "bytecode": "0x608060405234801561001057600080fd5b50612fcf806100206000396000f3fe608060405234801561001057600080fd5b50600436106100935760003560e01c80636b6d31d3116100665780636b6d31d31461014c578063a7740d7614610168578063b7c2469714610198578063bf7fb322146101c8578063fbae3fb8146101e457610093565b806312b781dd146100985780632ac08a93146100c85780633eb9b9f8146101005780635a7a113414610130575b600080fd5b6100b260048036038101906100ad919061212a565b610214565b6040516100bf91906123b5565b60405180910390f35b6100e260048036038101906100dd9190612403565b61075a565b6040516100f799989796959493929190612489565b60405180910390f35b61011a60048036038101906101159190612403565b610ad8565b6040516101279190612540565b60405180910390f35b61014a6004803603810190610145919061255b565b610afc565b005b610166600480360381019061016191906127b3565b610c16565b005b610182600480360381019061017d919061212a565b610cd1565b60405161018f91906123b5565b60405180910390f35b6101b260048036038101906101ad919061280f565b611217565b6040516101bf91906123b5565b60405180910390f35b6101e260048036038101906101dd9190612403565b6117b4565b005b6101fe60048036038101906101f99190612403565b61191c565b60405161020b9190612540565b60405180910390f35b60606000805b6000805490508110156102aa57600080828154811061023c5761023b612887565b5b90600052602060002001549050600060026000838152602001908152602001600020905085805190602001208160020160405161027991906129b9565b604051809103902003610295578380610291906129ff565b9450505b505080806102a2906129ff565b91505061021a565b5060008167ffffffffffffffff8111156102c7576102c6611fff565b5b60405190808252806020026020018201604052801561030057816020015b6102ed611eaa565b8152602001906001900390816102e55790505b5090506000915060005b60008054905081101561074f57600080828154811061032c5761032b612887565b5b90600052602060002001549050600060026000838152602001908152602001600020905086805190602001208160020160405161036991906129b9565b60405180910390200361073a5780604051806101200160405290816000820154815260200160018201805461039d906128e5565b80601f01602080910402602001604051908101604052809291908181526020018280546103c9906128e5565b80156104165780601f106103eb57610100808354040283529160200191610416565b820191906000526020600020905b8154815290600101906020018083116103f957829003601f168201915b5050505050815260200160028201805461042f906128e5565b80601f016020809104026020016040519081016040528092919081815260200182805461045b906128e5565b80156104a85780601f1061047d576101008083540402835291602001916104a8565b820191906000526020600020905b81548152906001019060200180831161048b57829003601f168201915b505050505081526020016003820180546104c1906128e5565b80601f01602080910402602001604051908101604052809291908181526020018280546104ed906128e5565b801561053a5780601f1061050f5761010080835404028352916020019161053a565b820191906000526020600020905b81548152906001019060200180831161051d57829003601f168201915b50505050508152602001600482018054610553906128e5565b80601f016020809104026020016040519081016040528092919081815260200182805461057f906128e5565b80156105cc5780601f106105a1576101008083540402835291602001916105cc565b820191906000526020600020905b8154815290600101906020018083116105af57829003601f168201915b50505050508152602001600582015481526020016006820180546105ef906128e5565b80601f016020809104026020016040519081016040528092919081815260200182805461061b906128e5565b80156106685780601f1061063d57610100808354040283529160200191610668565b820191906000526020600020905b81548152906001019060200180831161064b57829003601f168201915b50505050508152602001600782018054610681906128e5565b80601f01602080910402602001604051908101604052809291908181526020018280546106ad906128e5565b80156106fa5780601f106106cf576101008083540402835291602001916106fa565b820191906000526020600020905b8154815290600101906020018083116106dd57829003601f168201915b505050505081526020016008820154815250508486815181106107205761071f612887565b5b60200260200101819052508480610736906129ff565b9550505b50508080610747906129ff565b91505061030a565b508092505050919050565b6002602052806000526040600020600091509050806000015490806001018054610783906128e5565b80601f01602080910402602001604051908101604052809291908181526020018280546107af906128e5565b80156107fc5780601f106107d1576101008083540402835291602001916107fc565b820191906000526020600020905b8154815290600101906020018083116107df57829003601f168201915b505050505090806002018054610811906128e5565b80601f016020809104026020016040519081016040528092919081815260200182805461083d906128e5565b801561088a5780601f1061085f5761010080835404028352916020019161088a565b820191906000526020600020905b81548152906001019060200180831161086d57829003601f168201915b50505050509080600301805461089f906128e5565b80601f01602080910402602001604051908101604052809291908181526020018280546108cb906128e5565b80156109185780601f106108ed57610100808354040283529160200191610918565b820191906000526020600020905b8154815290600101906020018083116108fb57829003601f168201915b50505050509080600401805461092d906128e5565b80601f0160208091040260200160405190810160405280929190818152602001828054610959906128e5565b80156109a65780601f1061097b576101008083540402835291602001916109a6565b820191906000526020600020905b81548152906001019060200180831161098957829003601f168201915b5050505050908060050154908060060180546109c1906128e5565b80601f01602080910402602001604051908101604052809291908181526020018280546109ed906128e5565b8015610a3a5780601f10610a0f57610100808354040283529160200191610a3a565b820191906000526020600020905b815481529060010190602001808311610a1d57829003601f168201915b505050505090806007018054610a4f906128e5565b80601f0160208091040260200160405190810160405280929190818152602001828054610a7b906128e5565b8015610ac85780601f10610a9d57610100808354040283529160200191610ac8565b820191906000526020600020905b815481529060010190602001808311610aab57829003601f168201915b5050505050908060080154905089565b60008181548110610ae857600080fd5b906000526020600020016000915090505481565b6000600260008b8152602001908152602001600020905089816000018190555088816001019081610b2d9190612bf3565b5087816002019081610b3f9190612bf3565b5086816003019081610b519190612bf3565b5085816004019081610b639190612bf3565b5084816005018190555083816006019081610b7e9190612bf3565b5082816007019081610b909190612bf3565b5081816008018190555060008a90806001815401808255809150506001900390600052602060002001600090919091909150557fe17e5837fa18e1c748f23954c6939c3b08cb7666e962700a9ea9aa5a740ee7968a8a8a8a8a8a8a8a8a604051610c0299989796959493929190612489565b60405180910390a150505050505050505050565b6000815111610c5a576040517f08c379a0000000000000000000000000000000000000000000000000000000008152600401610c5190612d11565b60405180910390fd5b600060016000848152602001908152602001600020905082816000018190555081816001019080519060200190610c92929190611ef6565b507fb078175bcb52268c0488adf25863f654811f11e4f5662cf29cadc1b6e34e04e28383604051610cc4929190612df3565b60405180910390a1505050565b60606000805b600080549050811015610d67576000808281548110610cf957610cf8612887565b5b906000526020600020015490506000600260008381526020019081526020016000209050858051906020012081600301604051610d3691906129b9565b604051809103902003610d52578380610d4e906129ff565b9450505b50508080610d5f906129ff565b915050610cd7565b5060008167ffffffffffffffff811115610d8457610d83611fff565b5b604051908082528060200260200182016040528015610dbd57816020015b610daa611eaa565b815260200190600190039081610da25790505b5090506000915060005b60008054905081101561120c576000808281548110610de957610de8612887565b5b906000526020600020015490506000600260008381526020019081526020016000209050868051906020012081600301604051610e2691906129b9565b6040518091039020036111f757806040518061012001604052908160008201548152602001600182018054610e5a906128e5565b80601f0160208091040260200160405190810160405280929190818152602001828054610e86906128e5565b8015610ed35780601f10610ea857610100808354040283529160200191610ed3565b820191906000526020600020905b815481529060010190602001808311610eb657829003601f168201915b50505050508152602001600282018054610eec906128e5565b80601f0160208091040260200160405190810160405280929190818152602001828054610f18906128e5565b8015610f655780601f10610f3a57610100808354040283529160200191610f65565b820191906000526020600020905b815481529060010190602001808311610f4857829003601f168201915b50505050508152602001600382018054610f7e906128e5565b80601f0160208091040260200160405190810160405280929190818152602001828054610faa906128e5565b8015610ff75780601f10610fcc57610100808354040283529160200191610ff7565b820191906000526020600020905b815481529060010190602001808311610fda57829003601f168201915b50505050508152602001600482018054611010906128e5565b80601f016020809104026020016040519081016040528092919081815260200182805461103c906128e5565b80156110895780601f1061105e57610100808354040283529160200191611089565b820191906000526020600020905b81548152906001019060200180831161106c57829003601f168201915b50505050508152602001600582015481526020016006820180546110ac906128e5565b80601f01602080910402602001604051908101604052809291908181526020018280546110d8906128e5565b80156111255780601f106110fa57610100808354040283529160200191611125565b820191906000526020600020905b81548152906001019060200180831161110857829003601f168201915b5050505050815260200160078201805461113e906128e5565b80601f016020809104026020016040519081016040528092919081815260200182805461116a906128e5565b80156111b75780601f1061118c576101008083540402835291602001916111b7565b820191906000526020600020905b81548152906001019060200180831161119a57829003601f168201915b505050505081526020016008820154815250508486815181106111dd576111dc612887565b5b602002602001018190525084806111f3906129ff565b9550505b50508080611204906129ff565b915050610dc7565b508092505050919050565b60606000805b6000805490508110156112d857600080828154811061123f5761123e612887565b5b90600052602060002001549050600060026000838152602001908152602001600020905086805190602001208160010160405161127c91906129b9565b60405180910390201480156112af57508580519060200120816003016040516112a591906129b9565b6040518091039020145b156112c35783806112bf906129ff565b9450505b505080806112d0906129ff565b91505061121d565b5060008167ffffffffffffffff8111156112f5576112f4611fff565b5b60405190808252806020026020018201604052801561132e57816020015b61131b611eaa565b8152602001906001900390816113135790505b5090506000915060005b6000805490508110156117a857600080828154811061135a57611359612887565b5b90600052602060002001549050600060026000838152602001908152602001600020905087805190602001208160010160405161139791906129b9565b60405180910390201480156113ca57508680519060200120816003016040516113c091906129b9565b6040518091039020145b15611793578060405180610120016040529081600082015481526020016001820180546113f6906128e5565b80601f0160208091040260200160405190810160405280929190818152602001828054611422906128e5565b801561146f5780601f106114445761010080835404028352916020019161146f565b820191906000526020600020905b81548152906001019060200180831161145257829003601f168201915b50505050508152602001600282018054611488906128e5565b80601f01602080910402602001604051908101604052809291908181526020018280546114b4906128e5565b80156115015780601f106114d657610100808354040283529160200191611501565b820191906000526020600020905b8154815290600101906020018083116114e457829003601f168201915b5050505050815260200160038201805461151a906128e5565b80601f0160208091040260200160405190810160405280929190818152602001828054611546906128e5565b80156115935780601f1061156857610100808354040283529160200191611593565b820191906000526020600020905b81548152906001019060200180831161157657829003601f168201915b505050505081526020016004820180546115ac906128e5565b80601f01602080910402602001604051908101604052809291908181526020018280546115d8906128e5565b80156116255780601f106115fa57610100808354040283529160200191611625565b820191906000526020600020905b81548152906001019060200180831161160857829003601f168201915b5050505050815260200160058201548152602001600682018054611648906128e5565b80601f0160208091040260200160405190810160405280929190818152602001828054611674906128e5565b80156116c15780601f10611696576101008083540402835291602001916116c1565b820191906000526020600020905b8154815290600101906020018083116116a457829003601f168201915b505050505081526020016007820180546116da906128e5565b80601f0160208091040260200160405190810160405280929190818152602001828054611706906128e5565b80156117535780601f1061172857610100808354040283529160200191611753565b820191906000526020600020905b81548152906001019060200180831161173657829003601f168201915b5050505050815260200160088201548152505084868151811061177957611778612887565b5b6020026020010181905250848061178f906129ff565b9550505b505080806117a0906129ff565b915050611338565b50809250505092915050565b600060016000838152602001908152602001600020905060006002600084815260200190815260200160002090506040518060400160405280600881526020017f6469737061746368000000000000000000000000000000000000000000000000815250805190602001208160070160405161183091906129b9565b60405180910390200361184857611847828261193a565b5b6040518060400160405280600881526020017f6469737061746368000000000000000000000000000000000000000000000000815250805190602001208160070160405161189691906129b9565b6040518091039020036118b1576118ac816119e0565b611917565b6040518060400160405280600881526020017f726563696576656400000000000000000000000000000000000000000000000081525080519060200120816007016040516118ff91906129b9565b6040518091039020036119165761191581611dbd565b5b5b505050565b60016020528060005260406000206000915090508060000154905081565b6040518060400160405280600881526020017f6469737061746368000000000000000000000000000000000000000000000000815250805190602001208160070160405161198891906129b9565b60405180910390201480156119a4575060008260010180549050115b156119dc57816001018054806119bd576119bc612e23565b5b6001900381819060005260206000200160006119d99190611f4f565b90555b5050565b6040518060400160405280600881526020017f64697370617463680000000000000000000000000000000000000000000000008152508051906020012081600701604051611a2e91906129b9565b604051809103902003611dba576040518060400160405280600581526020017f62757965720000000000000000000000000000000000000000000000000000008152508051906020012081600401604051611a8991906129b9565b604051809103902003611b9e5780600401816003019081611aaa9190612e7d565b506040518060400160405280600481526020017f6e6f6e6500000000000000000000000000000000000000000000000000000000815250816004019081611af19190612bf3565b5060018160050154611b039190612f65565b81600501819055506040518060400160405280600981526020017f64656c6976657265640000000000000000000000000000000000000000000000815250816006019081611b519190612bf3565b506040518060400160405280600881526020017f7265636965766564000000000000000000000000000000000000000000000000815250816007019081611b989190612bf3565b50611db9565b60008060016000846000015481526020019081526020016000206001018054905011611bff576040518060400160405280600581526020017f6275796572000000000000000000000000000000000000000000000000000000815250611ce7565b600160008360000154815260200190815260200160002060010160018060008560000154815260200190815260200160002060010180549050611c429190612f65565b81548110611c5357611c52612887565b5b906000526020600020018054611c68906128e5565b80601f0160208091040260200160405190810160405280929190818152602001828054611c94906128e5565b8015611ce15780601f10611cb657610100808354040283529160200191611ce1565b820191906000526020600020905b815481529060010190602001808311611cc457829003601f168201915b50505050505b905081600401826003019081611cfd9190612e7d565b5080826004019081611d0f9190612bf3565b5060018260050154611d219190612f65565b82600501819055506040518060400160405280600c81526020017f6e6f742072656369657665640000000000000000000000000000000000000000815250826006019081611d6f9190612bf3565b506040518060400160405280600881526020017f7265636965766564000000000000000000000000000000000000000000000000815250826007019081611db69190612bf3565b50505b5b50565b6040518060400160405280600881526020017f72656369657665640000000000000000000000000000000000000000000000008152508051906020012081600701604051611e0b91906129b9565b604051809103902003611ea7576040518060400160405280600881526020017f7265636965766564000000000000000000000000000000000000000000000000815250816006019081611e5e9190612bf3565b506040518060400160405280600881526020017f6469737061746368000000000000000000000000000000000000000000000000815250816007019081611ea59190612bf3565b505b50565b6040518061012001604052806000815260200160608152602001606081526020016060815260200160608152602001600081526020016060815260200160608152602001600081525090565b828054828255906000526020600020908101928215611f3e579160200282015b82811115611f3d578251829081611f2d9190612bf3565b5091602001919060010190611f16565b5b509050611f4b9190611f8f565b5090565b508054611f5b906128e5565b6000825580601f10611f6d5750611f8c565b601f016020900490600052602060002090810190611f8b9190611fb3565b5b50565b5b80821115611faf5760008181611fa69190611f4f565b50600101611f90565b5090565b5b80821115611fcc576000816000905550600101611fb4565b5090565b6000604051905090565b600080fd5b600080fd5b600080fd5b600080fd5b6000601f19601f8301169050919050565b7f4e487b7100000000000000000000000000000000000000000000000000000000600052604160045260246000fd5b61203782611fee565b810181811067ffffffffffffffff8211171561205657612055611fff565b5b80604052505050565b6000612069611fd0565b9050612075828261202e565b919050565b600067ffffffffffffffff82111561209557612094611fff565b5b61209e82611fee565b9050602081019050919050565b82818337600083830152505050565b60006120cd6120c88461207a565b61205f565b9050828152602081018484840111156120e9576120e8611fe9565b5b6120f48482856120ab565b509392505050565b600082601f83011261211157612110611fe4565b5b81356121218482602086016120ba565b91505092915050565b6000602082840312156121405761213f611fda565b5b600082013567ffffffffffffffff81111561215e5761215d611fdf565b5b61216a848285016120fc565b91505092915050565b600081519050919050565b600082825260208201905092915050565b6000819050602082019050919050565b6000819050919050565b6121b28161219f565b82525050565b600081519050919050565b600082825260208201905092915050565b60005b838110156121f25780820151818401526020810190506121d7565b60008484015250505050565b6000612209826121b8565b61221381856121c3565b93506122238185602086016121d4565b61222c81611fee565b840191505092915050565b60006101208301600083015161225060008601826121a9565b506020830151848203602086015261226882826121fe565b9150506040830151848203604086015261228282826121fe565b9150506060830151848203606086015261229c82826121fe565b915050608083015184820360808601526122b682826121fe565b91505060a08301516122cb60a08601826121a9565b5060c083015184820360c08601526122e382826121fe565b91505060e083015184820360e08601526122fd82826121fe565b9150506101008301516123146101008601826121a9565b508091505092915050565b600061232b8383612237565b905092915050565b6000602082019050919050565b600061234b82612173565b612355818561217e565b9350836020820285016123678561218f565b8060005b858110156123a35784840389528151612384858261231f565b945061238f83612333565b925060208a0199505060018101905061236b565b50829750879550505050505092915050565b600060208201905081810360008301526123cf8184612340565b905092915050565b6123e08161219f565b81146123eb57600080fd5b50565b6000813590506123fd816123d7565b92915050565b60006020828403121561241957612418611fda565b5b6000612427848285016123ee565b91505092915050565b6124398161219f565b82525050565b600082825260208201905092915050565b600061245b826121b8565b612465818561243f565b93506124758185602086016121d4565b61247e81611fee565b840191505092915050565b60006101208201905061249f600083018c612430565b81810360208301526124b1818b612450565b905081810360408301526124c5818a612450565b905081810360608301526124d98189612450565b905081810360808301526124ed8188612450565b90506124fc60a0830187612430565b81810360c083015261250e8186612450565b905081810360e08301526125228185612450565b9050612532610100830184612430565b9a9950505050505050505050565b60006020820190506125556000830184612430565b92915050565b60008060008060008060008060006101208a8c03121561257e5761257d611fda565b5b600061258c8c828d016123ee565b99505060208a013567ffffffffffffffff8111156125ad576125ac611fdf565b5b6125b98c828d016120fc565b98505060408a013567ffffffffffffffff8111156125da576125d9611fdf565b5b6125e68c828d016120fc565b97505060608a013567ffffffffffffffff81111561260757612606611fdf565b5b6126138c828d016120fc565b96505060808a013567ffffffffffffffff81111561263457612633611fdf565b5b6126408c828d016120fc565b95505060a06126518c828d016123ee565b94505060c08a013567ffffffffffffffff81111561267257612671611fdf565b5b61267e8c828d016120fc565b93505060e08a013567ffffffffffffffff81111561269f5761269e611fdf565b5b6126ab8c828d016120fc565b9250506101006126bd8c828d016123ee565b9150509295985092959850929598565b600067ffffffffffffffff8211156126e8576126e7611fff565b5b602082029050602081019050919050565b600080fd5b600061271161270c846126cd565b61205f565b90508083825260208201905060208402830185811115612734576127336126f9565b5b835b8181101561277b57803567ffffffffffffffff81111561275957612758611fe4565b5b80860161276689826120fc565b85526020850194505050602081019050612736565b5050509392505050565b600082601f83011261279a57612799611fe4565b5b81356127aa8482602086016126fe565b91505092915050565b600080604083850312156127ca576127c9611fda565b5b60006127d8858286016123ee565b925050602083013567ffffffffffffffff8111156127f9576127f8611fdf565b5b61280585828601612785565b9150509250929050565b6000806040838503121561282657612825611fda565b5b600083013567ffffffffffffffff81111561284457612843611fdf565b5b612850858286016120fc565b925050602083013567ffffffffffffffff81111561287157612870611fdf565b5b61287d858286016120fc565b9150509250929050565b7f4e487b7100000000000000000000000000000000000000000000000000000000600052603260045260246000fd5b7f4e487b7100000000000000000000000000000000000000000000000000000000600052602260045260246000fd5b600060028204905060018216806128fd57607f821691505b6020821081036129105761290f6128b6565b5b50919050565b600081905092915050565b60008190508160005260206000209050919050565b60008154612943816128e5565b61294d8186612916565b94506001821660008114612968576001811461297d576129b0565b60ff19831686528115158202860193506129b0565b61298685612921565b60005b838110156129a857815481890152600182019150602081019050612989565b838801955050505b50505092915050565b60006129c58284612936565b915081905092915050565b7f4e487b7100000000000000000000000000000000000000000000000000000000600052601160045260246000fd5b6000612a0a8261219f565b91507fffffffffffffffffffffffffffffffffffffffffffffffffffffffffffffffff8203612a3c57612a3b6129d0565b5b600182019050919050565b60008190508160005260206000209050919050565b60006020601f8301049050919050565b600082821b905092915050565b600060088302612aa97fffffffffffffffffffffffffffffffffffffffffffffffffffffffffffffffff82612a6c565b612ab38683612a6c565b95508019841693508086168417925050509392505050565b6000819050919050565b6000612af0612aeb612ae68461219f565b612acb565b61219f565b9050919050565b6000819050919050565b612b0a83612ad5565b612b1e612b1682612af7565b848454612a79565b825550505050565b600090565b612b33612b26565b612b3e818484612b01565b505050565b5b81811015612b6257612b57600082612b2b565b600181019050612b44565b5050565b601f821115612ba757612b7881612a47565b612b8184612a5c565b81016020851015612b90578190505b612ba4612b9c85612a5c565b830182612b43565b50505b505050565b600082821c905092915050565b6000612bca60001984600802612bac565b1980831691505092915050565b6000612be38383612bb9565b9150826002028217905092915050565b612bfc826121b8565b67ffffffffffffffff811115612c1557612c14611fff565b5b612c1f82546128e5565b612c2a828285612b66565b600060209050601f831160018114612c5d5760008415612c4b578287015190505b612c558582612bd7565b865550612cbd565b601f198416612c6b86612a47565b60005b82811015612c9357848901518255600182019150602085019450602081019050612c6e565b86831015612cb05784890151612cac601f891682612bb9565b8355505b6001600288020188555050505b505050505050565b7f526f7574652073686f756c64206e6f7420626520656d70747900000000000000600082015250565b6000612cfb60198361243f565b9150612d0682612cc5565b602082019050919050565b60006020820190508181036000830152612d2a81612cee565b9050919050565b600081519050919050565b600082825260208201905092915050565b6000819050602082019050919050565b6000612d6983836121fe565b905092915050565b6000602082019050919050565b6000612d8982612d31565b612d938185612d3c565b935083602082028501612da585612d4d565b8060005b85811015612de15784840389528151612dc28582612d5d565b9450612dcd83612d71565b925060208a01995050600181019050612da9565b50829750879550505050505092915050565b6000604082019050612e086000830185612430565b8181036020830152612e1a8184612d7e565b90509392505050565b7f4e487b7100000000000000000000000000000000000000000000000000000000600052603160045260246000fd5b600081549050612e61816128e5565b9050919050565b60008190508160005260206000209050919050565b818103612e8b575050612f63565b612e9482612e52565b67ffffffffffffffff811115612ead57612eac611fff565b5b612eb782546128e5565b612ec2828285612b66565b6000601f831160018114612ef15760008415612edf578287015490505b612ee98582612bd7565b865550612f5c565b601f198416612eff87612e68565b9650612f0a86612a47565b60005b82811015612f3257848901548255600182019150600185019450602081019050612f0d565b86831015612f4f5784890154612f4b601f891682612bb9565b8355505b6001600288020188555050505b5050505050505b565b6000612f708261219f565b9150612f7b8361219f565b9250828203905081811115612f9357612f926129d0565b5b9291505056fea2646970667358221220b9aff42bed270f4c82e1143755bc1b0c0b0bb1cbe8968a560787be566e2cc4ef64736f6c63430008130033",
  "linkReferences": {},
  "deployedLinkReferences": {}
}